:1000000019C1000047C1000045C1000043C1000004
:1000100041C100003FC100003DC100003BC10000E4
:1000200039C1000037C1000035C1000033C10000F4
:1000300031C100002FC100002DC100002BC1000004
:1000400029C1000027C1000025C1000023C1000014
:1000500021C100001FC100001DC100003FC40000FD
:1000600019C1000065C200003AC2000013C10000BF
:1000700011C100000FC100000DC100000BC1000044
:1000800009C1000007C1000005C1000003C1000054
:1000900001C10000FFC00000FDC00000FBC0000067
:1000A000F9C00000F7C00000F5C00000F3C0000078
:1000B000F1C00000EFC00000EDC00000EBC0000088
:1000C000E9C00000E7C00000E5C00000E3C0000098
:1000D000E1C00000DFC00000DDC00000DBC00000A8
:1000E000D9C0000022032503140318031C035C037A
:1000F00029032D03330337033B034103450349031E
:100100005C034F035303570396039B03A003AA0307
:10011000B4032D04BE03C603CE03D803E203EC03ED
:10012000FB0305042D040F041904230400000A0B2B
:1001300002090C0D0E080703040100000000000076
:1001400000000000000000000000000000000000AF
:10015000000000000000000012111000000000006C
:10016000000000000000000000000000000000008F
:10017000000000002200250028002B002E00310086
:10018000340002010000050108010B0100002100FC
:10019000240027002A002D00300033000101000058
:1001A000040107010A0105050505070508080808F7
:1001B000020202020A0A08080404040401010101FF
:1001C00001010101030303030303030304070707FA
:1001D0000C0C0C0C0C0C0C0C02020202060606069F
:1001E000060606060B0B0B0B0B0B0B0B010210206C
:1001F000200808102040102040800201020108045D
:1002000002010102040810204080804020100804F0
:100210000201800402018040201008040201080449
:10022000020101020408102040800102040810208D
:100230004080CF0C11241FBECFEFD1E2DEBFCDBF77
:1002400000E00CBF24E0A2E7B3E001C01D92AB3296
:10025000B207E1F713E0A0E0B2E0E6EBFAE100E07C
:100260000BBF02C007900D92A237B107D9F711E07A
:10027000CAE1D1E000E006C021970109802FFE010C
:100280000E944D0DC931D10780E00807A9F7D6D7E4
:100290000C94590DB5CECF92DF92EF92FF920F934F
:1002A0001F93CF93DF936C017A018B01C0E0D0E004
:1002B000CE15DF0589F0D8016D918D01D601ED9144
:1002C000FC910190F081E02DC6011995892B11F464
:1002D0007E0102C02196ECCFC701DF91CF911F9123
:1002E0000F91FF90EF90DF90CF900895FC01918DDA
:1002F000828D981761F0828DDF01A80FB11D5D9688
:100300008C91928D9F5F9F73928F90E008958FEFF5
:100310009FEF0895FC01918D828D981731F0828DA9
:10032000E80FF11D858D90E008958FEF9FEF089500
:10033000FC01918D228D892F90E0805C9F4F821B64
:1003400091098F73992708958EE893E0F1DF21E0FA
:10035000892B09F420E0822F0895FC01848DDF01B0
:10036000A80FB11DA35ABF4F2C91848D90E0019628
:100370008F739927848FA689B7892C93A089B18917
:100380008C9180648C93938D848D981306C0028821
:10039000F389E02D80818F7D80830895EF92FF9215
:1003A0000F931F93CF93DF93EC0181E0888F9B8D98
:1003B0008C8D981305C0E889F989808185FD23C05B
:1003C000F62E0B8D10E00F5F1F4F0F731127E02EDD
:1003D0008C8DE8120BC00FB607FCFACFE889F989BB
:1003E000808185FFF5CFCE01B8DFF2CF8B8DFE0186
:1003F000E80FF11DE35AFF4FF0820B8FEA89FB896A
:100400008081806207C0EE89FF896083E889F9896D
:1004100080818064808381E090E0DF91CF911F91A3
:100420000F91FF90EF900895CF93DF93EC01888DAB
:100430008823C1F0EA89FB89808185FD05C0A889F0
:10044000B9898C9186FD0EC00FB607FCF5CF80816F
:1004500085FFF2CFA889B9898C9185FFEDCFCE01B8
:100460007CDFE8CFDF91CF91089580E090E0892B89
:1004700019F06ADF811125C080E090E0892B41F0FE
:1004800080E090E0892B21F00E94000081111CC0C7
:1004900080E090E0892B41F080E090E0892B21F012
:1004A0000E940000811113C080E090E0892BA1F030
:1004B00080E090E0892B81F00E94000081110AC049
:1004C00008950E940000D8CF0E940000E1CF0E9452
:1004D0000000EACF0C94000008950E94550D1F9271
:1004E0000F920FB60F9211240BB60F922F933F93DA
:1004F0004F935F936F937F938F939F93AF93BF932C
:10050000EF93FF938EE893E028DFFF91EF91BF9187
:10051000AF919F918F917F916F915F914F913F919B
:100520002F910F900BBE0F900FBE0F901F9018953C
:100530001F920F920FB60F9211240BB60F922F93AA
:100540008F939F93EF93FF93E0919E03F0919F030E
:100550008081E091A403F091A50382FD12C09081F7
:100560008091A7038F5F8F732091A803821751F0AA
:10057000E091A703F0E0E257FC4F958F8093A7032B
:1005800001C08081FF91EF919F918F912F910F90EA
:100590000BBE0F900FBE0F901F9018953FB7F894A9
:1005A0008091860390918703A0918803B09189037D
:1005B00026B5A89B05C02F3F19F00196A11DB11DBE
:1005C0003FBFBA2FA92F982F8827820F911DA11DF9
:1005D000B11DBC01CD0142E0660F771F881F991F36
:1005E0004A95D1F70895362F90E0FC01E45DFE4F67
:1005F0004491FC01E451FE4F2491FC01EA55FE4F69
:100600009491992309F46BC0442309F455C050E038
:10061000FA013197E231F10508F04EC08827EE5813
:10062000FF4F8F4F0C944D0D809180008F7707C046
:10063000809180008F7D03C080918000877F8093B0
:1006400080003AC084B58F7702C084B58F7D84BDA9
:1006500033C08091B0008F7703C08091B0008F7D50
:100660008093B00029C0809190008F7707C080915F
:1006700090008F7D03C080919000877F80939000D1
:100680001BC08091A0008F7707C08091A0008F7D54
:1006900003C08091A000877F8093A0000DC080914F
:1006A00020018F7707C0809120018F7D03C080914A
:1006B0002001877F80932001E92FF0E0EE0FFF1FDC
:1006C000EE58FE4FA591B4918FB7F894EC9131118B
:1006D00003C020952E2301C02E2B2C938FBF08958D
:1006E0001F93CF93DF93182FEB0103D5209711F4BD
:1006F00060E004C0CF3FD10531F461E0812FDF918C
:10070000CF911F9170CFE12FF0E0E45DFE4FE491B7
:100710004E2F50E0FA013197E231F10508F09DC00B
:100720008827EC57FF4F8F4F0C944D0D84B5806890
:1007300084BDC7BD97C084B5806284BDC8BD92C06A
:1007400080918000806880938000D0938900C0935E
:10075000880088C080918000806280938000D09360
:100760008B00C0938A007EC0809180008860809357
:100770008000D0938D00C0938C0074C08091B00035
:1007800080688093B000C093B3006CC08091B000CB
:1007900080628093B000C093B40064C080919000E8
:1007A000806880939000D0939900C09398005AC0BD
:1007B00080919000806280939000D0939B00C093C2
:1007C0009A0050C080919000886080939000D093F0
:1007D0009D00C0939C0046C08091A00080688093DB
:1007E000A0008091A0008F7B8093A000D093A900EF
:1007F000C093A80037C08091A00080628093A000C1
:10080000D093AB00C093AA002DC08091A000886057
:100810008093A000D093AD00C093AC0023C0809122
:100820002001806880932001D0932901C093280182
:1008300019C080912001806280932001D0932B0108
:10084000C0932A010FC0809120018860809320010D
:10085000D0932D01C0932C0105C0C038D1050CF0F8
:100860004CCF46CFDF91CF911F9108958F929F92E9
:10087000AF92BF92CF92DF92EF92FF926B017C0119
:100880008DDE4B015C01C114D104E104F104E9F0F7
:1008900085DEDC01CB0188199909AA09BB09883ECC
:1008A0009340A105B10578F321E0C21AD108E1080F
:1008B000F10888EE880E83E0981EA11CB11CC114BB
:1008C000D104E104F10421F7DECFFF90EF90DF9037
:1008D000CF90BF90AF909F908F9008951F920F92EE
:1008E0000FB60F9211242F933F938F939F93AF9343
:1008F000BF9380918A0390918B03A0918C03B09158
:100900008D033091850323E0230F2D3720F40196CA
:10091000A11DB11D05C026E8230F0296A11DB11D22
:100920002093850380938A0390938B03A0938C0379
:10093000B0938D038091860390918703A0918803E3
:10094000B09189030196A11DB11D809386039093F8
:100950008703A0938803B0938903BF91AF919F91C0
:100960008F913F912F910F900FBE0F901F90189570
:100970000C94040D0C94FC0C6FEF86E034DE6FEFEA
:1009800085E031DE6FEF83E02EDE6FEF8BE02BDE54
:100990006FEF8AE028DE6FEF89E025DE61E082E01C
:1009A00022DE61E087E01FDE61E088E01CDE61E0BE
:1009B0008CE019DE60E082E016DE68EE73E080E035
:1009C00090E054DF61E082E00EDE60E087E00BDE65
:1009D00068EE73E080E090E049DF61E087E003DEED
:1009E00060E088E000DE68EE73E080E090E03EDFEB
:1009F00061E088E0F8DD60E08CE0F5DD68EE73E052
:100A000080E090E033DF61E08CE0EDDD60E070E0FD
:100A100086E066DE68EE73E080E090E027DF6FEF4F
:100A200070E086E05DDE60E070E085E059DE68EE53
:100A300073E080E090E01ADF6FEF70E085E050DE59
:100A400060E070E083E04CDE68EE73E080E090E010
:100A50000DDF6FEF70E083E043DE60E070E08BE07D
:100A60003FDE68EE73E080E090E000DF6FEF70E063
:100A70008BE036DE60E070E08AE032DE68EE73E044
:100A800080E090E0F3DE6FEF70E08AE029DE60E066
:100A900070E089E025DE68EE73E080E090E0E6DE5D
:100AA0006FEF70E089E01CDE80917E03813019F4E5
:100AB00060E082E098DD80917D03813019F460E090
:100AC00087E091DD80917C03813019F460E088E05B
:100AD0008ADD80917B03813019F460E08CE083DD56
:100AE00080917A03813079F46091770370E086E039
:100AF000F7DD6091760370E085E0F2DD60917503CB
:100B000070E083E0EDDD80917903813079F46091CC
:100B1000740370E08BE0E4DD6091730370E08AE0C1
:100B2000DFDD6091720370E089E0DADD64E670E099
:100B300080E090E09BCE60E086E055DD60E085E0FF
:100B400052DD60E083E04FDD60E08BE04CDD60E093
:100B50008AE049DD60E089E046DD60E082E043DD77
:100B600060E087E040DD60E088E03DDD60E08CE053
:100B70003ADD61E082E037DD68EE73E080E090E02E
:100B800075DE60E082E02FDD61E087E02CDD68EE5D
:100B900073E080E090E06ADE60E087E024DD61E001
:100BA00088E021DD68EE73E080E090E05FDE60E0E9
:100BB00088E019DD61E08CE016DD68EE73E080E02E
:100BC00090E054DE60E08CE00EDD6FEF70E086E0D8
:100BD00087DD68EE73E080E090E048DE60E070E082
:100BE00086E07EDD6FEF70E085E07ADD68EE73E031
:100BF00080E090E03BDE60E070E085E071DD6FEF6B
:100C000070E083E06DDD68EE73E080E090E02EDE62
:100C100060E070E083E064DD6FEF70E08BE060DD4A
:100C200068EE73E080E090E021DE60E070E08BE051
:100C300057DD6FEF70E08AE053DD68EE73E080E02F
:100C400090E014DE60E070E08AE04ADD6FEF70E073
:100C500089E046DD68EE73E080E090E007DE60E06A
:100C600070E089E03DDD80917E03813019F461E020
:100C700082E0B9DC80917D03813019F461E087E086
:100C8000B2DC80917C03813019F461E088E0ABDC58
:100C900080917B03813019F461E08CE0A4DC8091C9
:100CA0007A03813079F46091770370E086E018DD93
:100CB0006091760370E085E013DD6091750370E06C
:100CC00083E00EDD80917903813079F460917403C3
:100CD00070E08BE005DD6091730370E08AE000DD79
:100CE0006091720370E089E0FBDC64E670E080E014
:100CF00090E0BCCDCF93DF93C0E0D0E060E0CE01C8
:100D000037DE2196C11580E1D807C1F76AE070E0AF
:100D100080E090E0ABDD80917803882329F08FE5B7
:100D200093E0DF91CF9158C1DF91CF910895CF9398
:100D300080E090E01FDE81111BC0DCDF61E080E01D
:100D400090E016DE61E08DE090E012DE8DE090E054
:100D500011DE813019F480937F0302C010927F036B
:100D600080917F03811102C0CF91E5CECF9104CE57
:100D700081E090E0FFDDC82F80937E0382E090E069
:100D8000F9DD80937D0383E090E0F4DD80937C03C4
:100D900084E090E0EFDD80937B0385E090E0EADD86
:100DA00080937A0386E090E0E5DD8093770387E027
:100DB00090E0E0DD8093760388E090E0DBDD8093D7
:100DC000750389E090E0D6DD809379038AE090E0B6
:100DD000D1DD809374038BE090E0CCDD80937303CE
:100DE0008CE090E0C7DD809372038DE090E0C2DD7F
:100DF000813019F480937F0302C010927F038091A9
:100E00007F03882309F44EC0C13011F460E001C0B3
:100E100061E082E0E8DB80917D03813011F460E0E5
:100E200001C061E087E0DFDB80917C03813011F459
:100E300060E001C061E088E0D6DB80917B03813017
:100E400011F460E001C061E08CE0CDDB80917A03B9
:100E5000813081F46091770370E086E041DC60913D
:100E6000760370E085E03CDC6091750370E083E020
:100E700037DC09C06FEF86E0B6DB6FEF85E0B3DBF0
:100E80006FEF83E0B0DB80917903813009F43BC0E0
:100E90006FEF8BE0A8DB6FEF8AE0A5DB6FEF89E0F7
:100EA000CF91A1CBC13019F461E082E09CDB80914D
:100EB0007D03813019F461E087E095DB80917C034C
:100EC000813019F461E088E08EDB80917B03813012
:100ED00019F461E08CE087DB80917A03813079F44A
:100EE0006091770370E086E0FBDB6091760370E051
:100EF00085E0F6DB6091750370E083E0F1DB8091C3
:100F00007903813081F46091740370E08BE0E8DB59
:100F10006091730370E08AE0E3DB6091720370E03C
:100F200089E0CF91DDCBCF9108952FB7F8948091D0
:100F30008A0390918B03A0918C03B0918D032FBFF6
:100F40008093960390939703A0939803B09399038B
:100F5000E0918E03F0918F030084F185E02D8EE8FF
:100F600093E0199597FF26C02FB7F89480918A03D4
:100F700090918B03A0918C03B0918D032FBF409172
:100F80009603509197036091980370919903841B85
:100F9000950BA60BB70B4091920350919303609170
:100FA00094037091950384179507A607B70780F2FD
:100FB0008FEF9FEF0895009761F0FC0101900020F2
:100FC000E9F73197AF01481B590BBC018EE893E05C
:100FD00062C980E090E00895CF93DF93ECDFEC01ED
:100FE0008EE693E0E8DF8C0F9D1FDF91CF9108958F
:100FF000E2CF8F929F92AF92BF920F931F93CF93A6
:10100000DF93CDB7DEB7A1970FB6F894DEBF0FBE62
:10101000CDBF19A2423008F44AE08E010F5D1F4F88
:10102000842E912CA12CB12CA501940114D5E62F6E
:10103000B901CA0101501109EA3014F4E05D01C0A0
:10104000E95CD801EC93232B242B252B69F7C801ED
:10105000B2DFA1960FB6F894DEBF0FBECDBFDF9111
:10106000CF911F910F91BF90AF909F908F90089557
:10107000CF93DF93682F70E080E090E04AE0B9DF23
:10108000EC018EE693E097DF8C0F9D1FDF91CF91EF
:101090000895CF92DF92EF92FF92CF93DF9397FF65
:1010A00020C06B017C01E0918E03F0918F030190D1
:1010B000F081E02D6DE28EE893E01995EC01662752
:1010C0007727CB016C197D098E099F094AE091DFD2
:1010D0008C0F9D1FDF91CF91FF90EF90DF90CF900D
:1010E00008954AE0DF91CF91FF90EF90DF90CF908D
:1010F00080CF90E0FC01E451FE4F2491FC01EA55C1
:10110000FE4F8491882399F090E0880F991FFC018D
:10111000E457FE4FA591B491FC01EE58FE4F859126
:1011200094918FB7F894EC91E22BEC938FBF0895D4
:10113000CF93DF93BC01990F880B990BAADFEC01C9
:101140008EE693E038DF8C0F9D1FDF91CF910895DD
:10115000FF920F931F93CF93DF9300D01F92CDB7D1
:10116000DEB7E3DEFC0197FD11C08D32910591F0F1
:10117000C0970A9778F0E0918E03F0918F03068074
:10118000F781E02D8EE893E01995EBCF60E070E0F9
:10119000CB014AC020E030E0A901F12CE130F1059B
:1011A000E9F0ED32F105C1F0CF01C0970A97B0F434
:1011B000AAE0B0E037D48F01FF0F220B330BDC0124
:1011C000CB01800F911FA21FB31F9C01AD012053C3
:1011D00031094109510902C0FF24F394E0918E03C3
:1011E000F0918F030680F781E02D8EE893E029834C
:1011F0003A834B835C83199598DEFC01C097298163
:101200003A814B815C810A9748F2E130F10531F275
:10121000FF2041F066277727CB01621B730B840BFD
:10122000950B02C0CA01B9010F900F900F900F905B
:10123000DF91CF911F910F91FF900895789484B51D
:10124000826084BD84B5816084BD85B5826085BDC2
:1012500085B5816085BD80916E00816080936E0050
:101260001092810080918100826080938100809142
:1012700081008160809381008091800081608093F3
:1012800080008091B10084608093B1008091B000B3
:1012900081608093B0008091910082608093910082
:1012A0008091910081608093910080919000816095
:1012B000809390008091A10082608093A100809132
:1012C000A10081608093A1008091A0008160809343
:1012D000A0008091210182608093210180912101F1
:1012E00081608093210180912001816080932001A1
:1012F00080917A00846080937A0080917A00826085
:1013000080937A0080917A00816080937A00809146
:101310007A00806880937A001092C100E0919E0369
:10132000F0919F0382E08083E0919A03F0919B0308
:101330001082E0919C03F0919D038FEC80831092CA
:10134000A603E091A203F091A30386E08083E091DD
:10135000A003F091A103808180618083E091A003CC
:10136000F091A103808188608083E091A003F091D7
:10137000A103808180688083E091A003F091A103A4
:1013800080818F7D808386E0B4DE85E0B2DE83E0FD
:10139000B0DE8BE0AEDE8AE0ACDE89E0AADE82E081
:1013A000A8DE87E0A6DE88E0A4DE8CE0A2DE64E6AC
:1013B00070E080E090E05ADABADC64E670E080E049
:1013C00090E054DA0FEF10E0D1E08EE893E00E9455
:1013D0009801892B09F4CDC2BBDEC62F609384032C
:1013E0006AE070E080E090E041DAC11153C0809182
:1013F0007F038823E9F06FEF86E0F5D86FEF85E093
:10140000F2D86FEF83E0EFD86FEF8BE0ECD86FEF9F
:101410008AE0E9D86FEF89E0E6D861E082E0E3D8BE
:1014200061E087E0E0D861E088E0DDD861E01CC0E1
:1014300060E086E0D8D860E085E0D5D860E083E061
:10144000D2D860E08BE0CFD860E08AE0CCD860E012
:1014500089E0C9D860E082E0C6D860E087E0C3D800
:1014600060E088E0C0D860E08CE0BDD810927E03D8
:1014700010927D0310927C0310927B0310927A03EA
:101480001092790380917803882309F424C280E1C3
:1014900092E021C08FEF8C0F843008F09EC058DEA0
:1014A0006093830380918403613009F056C08130DA
:1014B000A1F480917F03882311F060E001C061E016
:1014C00082E091D8D0937E0380917803882309F439
:1014D00002C28EE192E080DDFEC1823099F48091FB
:1014E0007F03882311F060E001C061E087E07BD8D2
:1014F000D0937D0380917803882309F4ECC18BE2BB
:1015000092E0E9CF833099F480917F03882311F032
:1015100060E001C061E088E066D8D0937C038091F0
:101520007803882309F4D7C188E392E0D4CF8430CC
:1015300009F0D1C180917F03882311F060E001C0E0
:1015400061E08CE050D8D0937B03809178038823AE
:1015500009F4C1C185E492E0BECF813099F4809155
:101560007F03882311F061E001C060E082E03BD896
:1015700010927E0380917803882309F4ACC182E540
:1015800092E0A9CF823061F480917F03882311F02B
:1015900061E001C060E087E026D810927D03EACFC9
:1015A000833061F480917F03882311F061E001C0F2
:1015B00060E088E018D810927C03DCCF843009F01A
:1015C0008AC180917F03882311F061E001C060E04F
:1015D0008CE009D810927B03CDCF8BEF8C0F82303B
:1015E00008F075C080917F03882359F0B1DD6095C4
:1015F00060938203ADDD609560938103A9DD609502
:1016000007C0A6DD60938203A3DD60938103A0DDA4
:101610006093800380918403853059F5E0908203C4
:101620006E2D70E086E05CD8F09081036F2D70E045
:1016300085E056D8C09180036C2F70E083E050D8CD
:10164000E11007C0F11005C0C11103C010927A0368
:1016500008C0E0927703F0927603C0937503D093AD
:101660007A0380917803882309F435C182E692E0F9
:1016700032CF863009F02FC1E09082036E2D70E0EA
:101680008BE02ED8F09081036F2D70E08AE028D88F
:10169000C09180036C2F70E089E022D8E11007C070
:1016A000F11005C0C11103C01092790308C0E09287
:1016B0007403F0927303C0937203D0937903809103
:1016C0007803882309F407C185E792E004CFC43684
:1016D00031F46FEF70E080E090E0DBDCFCC0C536F9
:1016E00061F488E892E084DC80E992E075DC89E9C5
:1016F00092E072DC81EC92E0EECEC63649F417DB64
:1017000080917803882309F4E6C087E093E0E3CE74
:10171000C73651F480917F03882319F010927F031C
:10172000DAC0D0937F03D7C0CE3611F4E3DAD3C04A
:10173000CF36B1F4EE24E394F12CC7011BD9682F06
:1017400070E080E090E04AE054DC87E193E050DC18
:101750002FEFE21AF20A3EE0E316F10471F7BBC084
:10176000C03709F089C081E090E004D960917E0320
:10177000861719F081E090E0FBD882E090E0FAD87B
:1017800060917D03861719F082E090E0F1D883E044
:1017900090E0F0D860917C03861719F083E090E028
:1017A000E7D884E090E0E6D860917B03861719F0D3
:1017B00084E090E0DDD885E090E0DCD860917A03A9
:1017C000861719F085E090E0D3D886E090E0D2D873
:1017D00060917703861719F086E090E0C9D887E01A
:1017E00090E0C8D860917603861719F087E090E002
:1017F000BFD888E090E0BED860917503861719F0D5
:1018000088E090E0B5D889E090E0B4D860917903A1
:10181000861719F089E090E0ABD88AE090E0AAD86A
:1018200060917403861719F08AE090E0A1D88BE0EC
:1018300090E0A0D860917303861719F08BE090E0D8
:1018400097D88CE090E096D860917203861719F0D3
:101850008CE090E08DD88DE090E08CD8813029F438
:1018600080917F03811104C08DC0882309F48CC04E
:1018700089E193E0BDDB2FC0C137C1F4C12CD12C6D
:101880007601C701B60105DC8FE193E0B1DBC6014B
:1018900071D8EEDB8FEFC81AD80AE80AF80A2EE0F2
:1018A000C216D104E104F10461F715C0C83C41F44B
:1018B00080917F03811102C03ED90DC05DD80BC05D
:1018C000C93C49F480917803882319F01092780379
:1018D00002C0D093780380917803882309F447C02D
:1018E00080917F03882329F186E293E081DB809158
:1018F0008403BEDB81E393E07BDB8091820398016C
:10190000281B3109C90114DC8CE393E071DB809161
:1019100081039801281B3109C9010ADC89E493E09D
:1019200067DB809180039801281B3109C90100DC25
:1019300018C086E293E05CDB8091840399DB81E34D
:1019400093E056DB8091820393DB8CE393E050DBE2
:10195000809181038DDB89E493E04ADB80918003F1
:1019600087DB85E593E044DB8091830381DB109284
:10197000830364E670E080E090E00E9436040E94F9
:10198000350223CD60E006C080917F03882309F4EF
:101990006FCF61E08DE090E00E94B80469CFEEE87F
:1019A000F3E01382128288EE93E0A0E0B0E084833B
:1019B0009583A683B78384E092E09183808385EC4E
:1019C00090E09587848784EC90E09787868780EC09
:1019D00090E0918B808B81EC90E0938B828B82ECFA
:1019E00090E0958B848B86EC90E0978B868B118EA4
:1019F000128E138E148E0895F999FECF92BD81BD7B
:101A0000F89A992780B50895262FF999FECF1FBA25
:101A100092BD81BD20BD0FB6F894FA9AF99A0FBE17
:101A20000196089509D0A59F900DB49F900DA49F95
:101A3000800D911D11240895A29FB001B39FC00194
:101A4000A39F700D811D1124911DB29F700D811DEA
:101A50001124911D0895A1E21A2EAA1BBB1BFD01A2
:101A60000DC0AA1FBB1FEE1FFF1FA217B307E4077D
:101A7000F50720F0A21BB30BE40BF50B661F771FD5
:101A8000881F991F1A9469F76095709580959095B5
:101A90009B01AC01BD01CF010895EE0FFF1F881F10
:101AA0008BBF0790F691E02D199481E090E0F894B7
:061AB00000C0F894FFCF16
:101AB60000000000CE014B01980176018A01140254
:101AC6004C656473206170616761646F73004C4597
:101AD600442031204C696761646F004C45442032D4
:101AE600204C696761646F004C45442033204C6983
:101AF6006761646F004C45442034204C696761641B
:101B06006F004C45442031204465736C69676164FD
:101B16006F004C454420524742203120416C746589
:101B26007261646F004C4544205247422032204186
:101B36006C74657261646F0056657273616F3A000A
:101B4600302E382042455441004669726D776172E5
:101B56006520696D706C656D656E7461646F20706B
:101B66006F72204B617565205A61746172696E2EC1
:101B7600004573746520636F6469676F2065206430
:101B860065206C697672652075736F2065206E65B9
:101B96006E68756D61207461786120646576657222
:101BA600612073657220636F627261646120706F79
:101BB6007220656C652E00436F6E666967205265FC
:101BC6006C6F61646564003B0053616C766F002046
:101BD6002D2D2D3E2000696E707574204C45443ABB
:101BE60000696E707574207265643A00696E70756E
:101BF6007420677265656E3A00696E70757420624E
:101C06006C75653A00696E707574204F4E3A0045E2
:101C16004550524F4D2061706167616461000D0A45
:021C26000000BC
:020000023000CC
:10E000000D9489F10D94B2F10D94B2F10D94B2F129
:10E010000D94B2F10D94B2F10D94B2F10D94B2F1F0
:10E020000D94B2F10D94B2F10D94B2F10D94B2F1E0
:10E030000D94B2F10D94B2F10D94B2F10D94B2F1D0
:10E040000D94B2F10D94B2F10D94B2F10D94B2F1C0
:10E050000D94B2F10D94B2F10D94B2F10D94B2F1B0
:10E060000D94B2F10D94B2F10D94B2F10D94B2F1A0
:10E070000D94B2F10D94B2F10D94B2F10D94B2F190
:10E080000D94B2F10D94B2F10D94B2F10D94B2F180
:10E090000D94B2F10D94B2F10D94B2F10D94B2F170
:10E0A0000D94B2F10D94B2F10D94B2F10D94B2F160
:10E0B0000D94B2F10D94B2F10D94B2F10D94B2F150
:10E0C0000D94B2F10D94B2F10D94B2F10D94B2F140
:10E0D0000D94B2F10D94B2F10D94B2F10D94B2F130
:10E0E0000D94B2F141546D656761323536300041AF
:10E0F000726475696E6F206578706C6F72657220DE
:10E1000073746B3530305632206279204D4C530099
:10E11000426F6F746C6F616465723E004875683F52
:10E1200000436F6D70696C6564206F6E203D200048
:10E130004350552054797065202020203D20005FF9
:10E140005F4156525F415243485F5F3D2000415658
:10E1500052204C696243205665723D20004743437C
:10E160002056657273696F6E203D20004350552024
:10E1700049442020202020203D20004C6F7720663D
:10E18000757365202020203D20004869676820665F
:10E190007573652020203D200045787420667573D6
:10E1A00065202020203D20004C6F636B2066757336
:10E1B000652020203D20004D617220203720323024
:10E1C000313300312E362E3800342E332E350056A2
:10E1D00023202020414444522020206F7020636F70
:10E1E00064652020202020696E73747275637469E1
:10E1F0006F6E2061646472202020496E74657272B3
:10E20000757074006E6F20766563746F7200726A49
:10E210006D702020006A6D70200057686174207056
:10E220006F72743A00506F7274206E6F7420737541
:10E2300070706F72746564004D7573742062652030
:10E2400061206C6574746572002000577269747483
:10E25000696E672045450052656164696E672045B7
:10E26000450045452065727220636E743D00504F35
:10E27000525400303D5A65726F2061646472003FF1
:10E280003D43505520737461747300403D454550C3
:10E29000524F4D207465737400423D426C696E6B41
:10E2A000204C454400453D44756D70204545505215
:10E2B0004F4D00463D44756D7020464C415348001B
:10E2C000483D48656C70004C3D4C69737420492F83
:10E2D0004F20506F72747300513D51756974005234
:10E2E0003D44756D702052414D00563D73686F7707
:10E2F00020696E7465727275707420566563746FF0
:10E30000727300593D506F727420626C696E6B00BD
:10E310002A0011241FBECFEFD1E2DEBFCDBF01E046
:10E320000CBF12E0A0E0B2E0EEE1FDEF03E00BBFB6
:10E3300002C007900D92A030B107D9F712E0A0E01B
:10E34000B2E001C01D92AE30B107E1F70F9460F367
:10E350000D948DFE01E20EBF0FEF0DBF11241FBE05
:10E360000D9460F30D9400F020E030E040ED57E0B4
:10E3700005C0FA013197F1F72F5F3F4F2817390792
:10E38000C0F308959C01260F311DC901A0E0B0E043
:10E390002F5F3F4FABBFFC018791882361F08093D3
:10E3A000C6008091C00086FFFCCF8091C0008064D1
:10E3B0008093C000EACF08958DE08093C6008091DD
:10E3C000C00086FFFCCF8091C00080648093C000B5
:10E3D0008AE08093C6008091C00086FFFCCF8091C8
:10E3E000C00080648093C00008950F94C2F10F9420
:10E3F000DCF10895FC019081992359F09093C600B7
:10E400008091C00086FFFCCF8091C0008064809323
:10E41000C0003196992379F70895282F982F929567
:10E420009F70892F805D8A3308F0895F8093C600D2
:10E430008091C00086FFFCCF8091C00080648093F3
:10E44000C000822F8F70982F905D9A3308F0995FEB
:10E450009093C6008091C00086FFFCCF8091C000E1
:10E4600080648093C00008959C01FB01853691056E
:10E470001CF46330710594F0C90164E670E00F94F8
:10E480002EFE605D7F4F6093C6008091C00086FFC6
:10E49000FCCF8091C00080648093C0002B30310598
:10E4A00014F43297B4F0C90164E670E00F942EFEC4
:10E4B0006AE070E00F942EFE605D7F4F6093C600AF
:10E4C0008091C00086FFFCCF8091C0008064809363
:10E4D000C000C9016AE070E00F942EFEC0968093E0
:10E4E000C6008091C00086FFFCCF8091C000806490
:10E4F0008093C00008951F93182F8EE692EE60E07F
:10E500000F94C2F11093C6008091C00086FFFCCF2B
:10E510008091C00080648093C0000F94DCF11F9153
:10E5200008952F923F924F925F926F927F928F92B7
:10E530009F92AF92BF92CF92DF92EF92FF920F9392
:10E540001F93DF93CF93CDB7DEB762970FB6F894E2
:10E55000DEBF0FBECDBF382E622ECA01DB015C01CB
:10E560006D01772420E2222E2E010894411C511CBB
:10E570008BC081E0A81680E0B80681E0C80680E084
:10E58000D80628F0C601AA27BB270F940DF2BB2797
:10E59000AD2D9C2D8B2D0F940DF28A2D0F940DF225
:10E5A0002092C6008091C00086FFFCCF8091C00001
:10E5B00080648093C0009DE29093C6008091C0006B
:10E5C00086FFFCCF8091C00080648093C0002092C1
:10E5D000C6008091C00086FFFCCF8091C00080649F
:10E5E0008093C00019828601750188249924A1E0D6
:10E5F0003A1651F03A1620F0B2E03B1661F409C029
:10E600000BBFF701779007C0C7010F9477FE782EF4
:10E6100002C0F7017080872D0F940DF22092C60082
:10E620008091C00086FFFCCF8091C0008064809301
:10E63000C000872D8052F401EF70F0708F3520F408
:10E64000E40DF51D708204C0E40DF51D8EE280839B
:10E650000894E11CF11C011D111D0894811C911CE2
:10E6600090E18916910409F0C2CF80E190E0A0E02A
:10E67000B0E0A80EB91ECA1EDB1E198AC2010F9493
:10E68000FAF10F94DCF16A94662009F072CF629679
:10E690000FB6F894DEBF0FBECDBFCF91DF911F91B3
:10E6A0000F91FF90EF90DF90CF90BF90AF909F9031
:10E6B0008F907F906F905F904F903F902F90089534
:10E6C0002F923F924F925F926F927F928F929F9282
:10E6D000AF92BF92CF92DF92EF92FF920F931F9370
:10E6E000DF93CF93CDB7DEB7CD53D1400FB6F894BB
:10E6F000DEBF0FBECDBF01E20EBF0FEF0DBF94B75F
:10E70000F894A89514BE80916000886180936000A1
:10E7100010926000789493FF05C0E0910002F091A0
:10E7200001021995279A2F9A8091C00082608093E8
:10E73000C00080E18093C40088E18093C1000000A4
:10E74000EE24FF24870144E0A42EB12CCC24DD2448
:10E7500024C0C5010197F1F70894E11CF11C011DCB
:10E76000111D21E2E2162EE4F20620E0020720E06D
:10E77000120718F031E0C32ED12CC801B70127ECE5
:10E780003BE140E050E00F9441FE611571058105C9
:10E79000910519F485B1805885B98091C00087FD35
:10E7A00003C0C114D104A9F2A6014F5F5F4FC25E3E
:10E7B000DE4F59834883CE51D140C25EDE4F8881FF
:10E7C0009981CE51D140019711F00D9410FEC05D9A
:10E7D000DE4F19821882C053D14060E0C15DDE4F28
:10E7E0001882CF52D14088249924C35DDE4F19820C
:10E7F0001882CD52D140C05EDE4F188219821A8233
:10E800001B82C052D140CE5CDE4F188219821A8220
:10E810001B82C253D140EE24FF2487010BBFF701B6
:10E8200007911691C45CDE4F19830883CC53D14005
:10E830000D940BFEC25EDE4F28813981CE51D1404E
:10E840002130310509F52091C600C25EDE4F1982E4
:10E850001882CE51D14022C02F5F3F4F4F4F5F4FA4
:10E86000213082E138078AE7480780E0580780F0C6
:10E87000C45CDE4FE881F981CC53D140EF5FFF4F9C
:10E8800019F0EE27FF27099420E030E040E050E047
:10E890008091C00087FFE0CF2091C600C35DDE4FAE
:10E8A00048815981CD52D1404F5F5F4FC35DDE4FEC
:10E8B00059834883CD52D140213209F063C64A3092
:10E8C000510508F05FC60894811C911C53E0851621
:10E8D000910409F059C600E010E018C081E280936D
:10E8E000C6008091C00086FFFCCF8091C00080648C
:10E8F0008093C0002F5F3F4F2931310579F70F9486
:10E90000DCF10F5F1F4F0530110519F020E030E0FA
:10E91000E5CF10920A0210920B0210920C02109294
:10E920000D02109206021092070210920802109235
:10E930000902109202021092030210920402109235
:10E9400005028FEE90EE60E00F94F5F180E191EE1C
:10E9500060E00F94C2F18091C00087FFFCCF9091DE
:10E96000C600903608F09F759032B8F09093C600BC
:10E970008091C00086FFFCCF8091C00080648093AE
:10E98000C000A0E2A093C6008091C00086FFFCCF2B
:10E990008091C00080648093C000983409F4D7C18E
:10E9A0009934B8F4923409F459C1933458F490333B
:10E9B00019F1903308F4E3C59F33A1F1903409F0C5
:10E9C000DEC5BDC0953409F470C1963409F0D7C5D1
:10E9D00098C1923509F42BC2933538F49C3409F46C
:10E9E000F5C1913509F0CBC518C2963509F445C279
:10E9F000993509F0C4C567C483E792EE62E00F94CD
:10EA0000F5F110920602109207021092080210927D
:10EA1000090210920A0210920B0210920C0210923C
:10EA20000D0213C18FE792EE62E00F94F5F18FEEC5
:10EA300090EE60E00F94F5F181E291EE60E00F94CA
:10EA4000C2F187EB91EE60E00F94F5F180E391EE77
:10EA500060E00F94C2F184EE90EE60E00F94F5F167
:10EA60008FE391EE60E00F94C2F186E090E061E008
:10EA700070E00F9434F20F94DCF18DE591EE60E0DC
:10EA80000F94C2F189EC91EE60E00F94F5F18EE401
:10EA900091EE60E00F94C2F183EC91EE60E00F9490
:10EAA000F5F18CE691EE60E00F94C2F18EE10F94E7
:10EAB0000DF288E90F940DF281E00F940DF20F949E
:10EAC000DCF18BE791EE60E00F94C2F119E0E0E039
:10EAD000F0E010935700E4918E2F0F940DF20F94F5
:10EAE000DCF18AE891EE60E00F94C2F1E3E0F0E03F
:10EAF00010935700E4918E2F0F940DF20F94DCF1D8
:10EB000089E991EE60E00F94C2F1E2E0F0E0109349
:10EB10005700E4918E2F0F940DF20F94DCF188EAE8
:10EB200091EE60E00F94C2F1E1E0F0E01093570045
:10EB30001491812F0F940DF20F94DCF107CF8BE825
:10EB400092EE62E00F94F5F18BE492EE60E00F94A8
:10EB5000F5F10F94DCF100E010E019C0C8016F2D51
:10EB60000F947FFEFF2031F489E492EE60E00F9471
:10EB7000C2F10BC0F092C6008091C00086FFFCCFAE
:10EB80008091C00080648093C0000F5F1F4FC80158
:10EB900081519F41A0E0B0E0ABBFFC01F790BAE229
:10EBA000FB1621F0E2E000301E07C1F60F94DCF105
:10EBB0000F94DCF187E592EE60E00F94F5F10F948D
:10EBC000DCF1CC24DD2400E010E01EC0C8010F946D
:10EBD00077FEF82E882331F489E492EE60E00F94FA
:10EBE000C2F10BC08093C6008091C00086FFFCCFAD
:10EBF0008091C00080648093C000FE1419F00894D6
:10EC0000C11CD11C0F5F1F4FC80181519F41A0E063
:10EC1000B0E0ABBFFC01E790FAE2EF1621F022E092
:10EC20000030120799F60F94DCF10F94DCF182E6C4
:10EC300092EE60E00F94C2F1C60161E070E00F94C3
:10EC400034F20F94DCF10F94DCF110920202109276
:10EC50000302109204021092050278CE89E992EE26
:10EC600062E00F94F5F1279A2F9A16C02F9880E052
:10EC700090E0E0EDF7E03197F1F7019684369105E9
:10EC8000C1F72F9A80E090E0E0EDF7E03197F1F7DF
:10EC9000019684369105C1F78091C00087FFE6CFC9
:10ECA0008091C00087FFFCCF64C485EA92EE62E0E9
:10ECB0000F94F5F140910202509103026091040219
:10ECC0007091050281E020E10F9491F2809102029F
:10ECD00090910302A0910402B091050280509F4FD1
:10ECE000AF4FBF4F8093020290930302A0930402A0
:10ECF000B093050280509041A040B04008F426CE69
:10ED0000A4CF83EB92EE62E00F94F5F140910602FE
:10ED100050910702609108027091090280E020E1A1
:10ED20000F9491F28091060290910702A09108023F
:10ED3000B091090280509F4FAF4FBF4F80930602A2
:10ED400090930702A0930802B0930902FFCD80ECD4
:10ED500092EE62E00F94F5F183E792EE60E00F949B
:10ED6000F5F18FE792EE60E00F94F5F18BE892EE0B
:10ED700060E00F94F5F189E992EE60E00F94F5F10F
:10ED800085EA92EE60E00F94F5F183EB92EE60E09D
:10ED90000F94F5F180EC92EE60E00F94F5F187ECC2
:10EDA00092EE60E00F94F5F188ED92EE60E00F9442
:10EDB000F5F18FED92EE60E00F94F5F18AEE92EEB0
:10EDC00060E00F94F5F183E093EEBDCD87EC92EE19
:10EDD00062E00F94F5F181E40F947BF282E40F94EA
:10EDE0007BF283E40F947BF284E40F947BF285E45E
:10EDF0000F947BF286E40F947BF287E40F947BF20E
:10EE000088E40F947BF28AE40F947BF28BE40F94F6
:10EE10007BF28CE40F947BF299CD88ED92EE62E068
:10EE20000F94F5F1772473948824992409C48FED05
:10EE300092EE62E00F94F5F140910A0250910B02BC
:10EE400060910C0270910D0282E020E10F9491F22A
:10EE500080910A0290910B02A0910C02B0910D02D8
:10EE600080509F4FAF4FBF4F80930A0290930B0289
:10EE7000A0930C02B0930D0269CD8AEE92EE62E08F
:10EE80000F94F5F184EE90EE60E00F94F5F18FECC5
:10EE900091EE60E00F94F5F1662477244301CC5D98
:10EEA000DE4F19821882C452D140D401C301B695F5
:10EEB000A79597958795CA5DDE4F88839983AA8326
:10EEC000BB83C652D140CC5DDE4FA881B981C4520C
:10EED000D1401196CC5DDE4FB983A883C452D14096
:10EEE000CD0162E070E00F9434F2B0E2B093C6005E
:10EEF0008091C00086FFFCCF8091C0008064809329
:10EF0000C000EDE2E093C6008091C00086FFFCCF18
:10EF10008091C00080648093C000F0E2F093C6004E
:10EF20008091C00086FFFCCF8091C00080648093F8
:10EF3000C000CA5DDE4FE880F9800A811B81C6529D
:10EF4000D140BB27A12F902F8F2D0F940DF2CA5DBA
:10EF5000DE4F8881C652D1400F940DF2B0E2FB2EF5
:10EF6000F092C6008091C00086FFFCCF8091C00067
:10EF700080648093C0000DE30093C6008091C000C0
:10EF800086FFFCCF8091C00080648093C00010E2B7
:10EF90001093C6008091C00086FFFCCF8091C00016
:10EFA00080648093C0008BBEF3012791C65DDE4F65
:10EFB0002883CA52D140A22EBB24CC24DD2408943D
:10EFC000611C711C811C911C8BBEF3018791282E42
:10EFD0003324442455240894611C711C811C911C09
:10EFE0008BBEF3013791C55DDE4F3883CB52D140E4
:10EFF0000894611C711C811C911C8BBEF30147910C
:10F00000C45DDE4F4883CC52D140ADEFEA2EAFEF66
:10F01000FA2EAFEF0A2FAFEF1A2F6E0C7F1C801E57
:10F02000911E142D032DF22CEE24EA0CFB1C0C1D5A
:10F030001D1D0F940DF220E22093C6008091C000A8
:10F0400086FFFCCF8091C00080648093C000C65DC5
:10F05000DE4F8881CA52D1400F940DF230E23093D6
:10F06000C6008091C00086FFFCCF8091C000806404
:10F070008093C000C45DDE4F8881CC52D1400F9494
:10F080000DF240E24093C6008091C00086FFFCCFA5
:10F090008091C00080648093C000C55DDE4F888190
:10F0A000CB52D1400F940DF250E25093C6008091A4
:10F0B000C00086FFFCCF8091C00080648093C000B8
:10F0C0008FEFE8168FEFF80680E0080780E018075A
:10F0D00031F484E092EE60E00F94C2F1DFC0D80119
:10F0E000C7018070907CA070B0708050904CA040A0
:10F0F000B040D1F52FEF3FE340E050E0E222F322B1
:10F1000004231523CA5DDE4FA880B980CA80DB8046
:10F11000C652D140AE0CBF1CC01ED11EAA0CBB1CD7
:10F12000CC1CDD1C8EE092EE60E00F94C2F1BB2798
:10F13000A12F902F8F2D0F940DF28E2D0F940DF285
:10F1400030E23093C6008091C00086FFFCCF8091F2
:10F15000C00080648093C0004EE34093C60080915D
:10F16000C00086FFFCCF87C08EE09EEFA0E0B0E03D
:10F17000E822F9220A231B239CE0E91694E9F90608
:10F1800090E0090790E0190709F088C0C45DDE4FE0
:10F19000A881CC52D140EA2EFF2400E010E0102FCD
:10F1A0000F2DFE2CEE24C55DDE4FB881CB52D14031
:10F1B000EB0EF11C011D111DD601C501817090706F
:10F1C000A070B070DC0199278827E80EF91E0A1F8D
:10F1D0001B1F20EF30E040E050E0A222B322C42207
:10F1E000D52241E1AA0CBB1CCC1CDD1C4A95D1F7F1
:10F1F000EA0CFB1C0C1D1D1D81E090E0A0E0B0E0BE
:10F20000282239224A225B2235E1220C331C441C7D
:10F21000551C3A95D1F7E20CF31C041D151D57013E
:10F220006801AA0CBB1CCC1CDD1C85E192EE60E0E1
:10F230000F94C2F1C801AA27BB270F940DF2BB2778
:10F24000A12F902F8F2D0F940DF28E2D0F940DF274
:10F2500090E29093C6008091C00086FFFCCF809121
:10F26000C00080648093C000AEE3A093C60080918C
:10F27000C00086FFFCCF8091C00080648093C000F6
:10F28000C601AA27BB270F940DF2BB27AD2D9C2DDD
:10F290008B2D0F940DF28A2D0F940DF20F94DCF14B
:10F2A000CC5DDE4FE881F981C452D140F99709F471
:10F2B0004DCBF4E0EF2EF12C012D112D6E0C7F1CA7
:10F2C000801E911EF2CD83E093EE62E00F94F5F183
:10F2D0008AE192EE60E00F94C2F18091C00087FF56
:10F2E000FCCF1091C6001F751093C6008091C0001E
:10F2F00086FFFCCF8091C00080648093C0000F9493
:10F30000DCF1812F81548A3108F036C1163409F4BA
:10F3100095C0173490F4133409F44EC0143430F40B
:10F320001134F1F0123409F01DC130C0143409F465
:10F3300059C0153409F016C16BC01A3409F4C4C0A1
:10F340001B3438F4173409F48FC0183409F00AC19B
:10F35000A1C01B3409F4D2C01C3409F003C1E8C0B9
:10F360008FEF81B90DC082B1809582B980E090E0C5
:10F37000E0EDF7E03197F1F70196883C9105C1F790
:10F380008091C00087FFEFCF12B8EFC08FEF84B934
:10F390000DC085B1809585B980E090E0E0EDF7E0A3
:10F3A0003197F1F70196883C9105C1F78091C00033
:10F3B00087FFEFCF15B8D9C08FEF87B90DC088B1DF
:10F3C000809588B980E090E0E0EDF7E03197F1F7C3
:10F3D0000196883C9105C1F78091C00087FFEFCF6F
:10F3E00018B8C3C08FEF8AB90DC08BB180958BB9A7
:10F3F00080E090E0E0EDF7E03197F1F70196883C8E
:10F400009105C1F78091C00087FFEFCF1BB8ADC059
:10F410008FEF8DB90DC08EB180958EB980E090E0F0
:10F42000E0EDF7E03197F1F70196883C9105C1F7DF
:10F430008091C00087FFEFCF1EB897C08FEF80BBD1
:10F440000DC081B3809581BB80E090E0E0EDF7E0F6
:10F450003197F1F70196883C9105C1F78091C00082
:10F4600087FFEFCF11BA81C08FEF83BB0DC084B38C
:10F47000809584BB80E090E0E0EDF7E03197F1F714
:10F480000196883C9105C1F78091C00087FFEFCFBE
:10F4900014BA6BC08FEF809301010FC080910201FD
:10F4A00080958093020180E090E0E0EDF7E03197F5
:10F4B000F1F70196883C9105C1F78091C00087FF64
:10F4C000EDCF1092020151C08FEF809304010FC065
:10F4D0008091050180958093050180E090E0E0ED4A
:10F4E000F7E03197F1F70196883C9105C1F78091DB
:10F4F000C00087FFEDCF1092050137C08FEF8093DA
:10F5000007010FC08091080180958093080180E079
:10F5100090E0E0EDF7E03197F1F70196883C910536
:10F52000C1F78091C00087FFEDCF109208011DC088
:10F530008FEF80930A010FC080910B01809580931B
:10F540000B0180E090E0E0EDF7E03197F1F70196F4
:10F55000883C9105C1F78091C00087FFEDCF1092E4
:10F560000B0103C085E292EEEEC98091C00087FFD7
:10F57000FCCF8091C600EAC988E392EEE4C98CE131
:10F5800091EEE1C988249924933011F1943028F444
:10F59000913089F09230B8F408C0953061F195301F
:10F5A000F0F0963009F048C043C02B3109F042C951
:10F5B00091E06BE13FC96227C15DDE4F2883CF52E6
:10F5C000D14092E037C9B22FA0E0622793E032C960
:10F5D000822F90E0A82BB92B622794E02BC92E3004
:10F5E00009F039C3622795E0C05DDE4F19821882A9
:10F5F000C053D1401FC9E1E0F0E0EC0FFD1FC05D3A
:10F60000DE4F08811981C053D140E00FF11F2083E4
:10F610000F5F1F4FC05DDE4F19830883C053D14079
:10F6200062270A171B0709F005C9D80196E002C92D
:10F63000261709F010C303C0973009F0FBC87724E0
:10F640009981933109F412C19431C8F4963009F4C8
:10F65000D8C0973050F4923009F406C1933009F4C1
:10F660006DC0913009F059C253C0913109F477C08F
:10F67000923108F0BBC0903109F04FC2F5C098310B
:10F6800009F487C0993150F4953109F4EFC09531F0
:10F6900008F4C6C1963109F040C2C2C19A3109F4DA
:10F6A0006CC09A3108F491C09B3109F45BC09D3164
:10F6B00009F033C29D81903359F48F81882311F46E
:10F6C0009EE11CC0813011F091E018C098E916C08D
:10F6D000892F807591F0903539F4E0E0F0E089E011
:10F6E0008093570094910AC0983539F4E3E0F0E034
:10F6F00089E080935700949101C090E01A821B82A8
:10F700008D818C831D829E831F8227E030E009C299
:10F710001A8288E08B8381E48C8386E58D8382E581
:10F720008E8389E48F8383E5888780E589878FE5E9
:10F730008A8782E38B872BE030E0F3C18A818139AD
:10F7400041F0823941F0803911F48FE005C080E04A
:10F7500003C082E001C08AE01A828B8344C0772410
:10F76000739482C08D81882311F48EE12CC0813086
:10F7700011F081E028C088E926C01A82E1E0F0E0BB
:10F7800089E08093570084918B831C8224E030E0D1
:10F79000C8C18B81803589F48C81883039F4E2E0EE
:10F7A000F0E089E08093570084910DC0E0E0F0E044
:10F7B00089E080935700849106C0E3E0F0E089E09F
:10F7C0008093570084911A82DFCF8D81836C99E0FA
:10F7D000E1E0F0E0082E90935700E89507B600FCB2
:10F7E000FDCF1A821B8223E030E09BC180EC8A832C
:10F7F000CE5CDE4F188219821A821B82C253D1401E
:10F800008EC18A8190E0A0E0B0E0582F44273327D2
:10F8100022278B8190E0A0E0B0E0DC0199278827C7
:10F82000282B392B4A2B5B2B8D8190E0A0E0B0E098
:10F83000282B392B4A2B5B2B8C8190E0A0E0B0E089
:10F84000BA2FA92F982F8827282B392B4A2B5B2BCF
:10F85000220F331F441F551FC05EDE4F288339839C
:10F860004A835B83C052D1401A8259C13A81C95C34
:10F87000DE4F3883C753D140CA5CDE4F1882C6536F
:10F88000D1408B81C82EDD24CA5CDE4F488159816E
:10F89000C653D140C42AD52A933109F082C0CE5C28
:10F8A000DE4F88819981AA81BB81C253D1408050AB
:10F8B000904CA340B04030F583E0CE5CDE4FE88052
:10F8C000F9800A811B81C253D140F70100935B008C
:10F8D00080935700E89507B600FCFDCFCE5CDE4F65
:10F8E000088119812A813B81C253D14000501F4FAA
:10F8F0002F4F3F4FCE5CDE4F088319832A833B8313
:10F90000C253D140C05EDE4F488159816A817B81FC
:10F91000C052D140DE011B9631E08C9111962C91A2
:10F9200011971296C75CDE4F2883C953D140C85C3B
:10F93000DE4F1882C853D14090E0C85CDE4FE881AA
:10F94000F981C853D1408E2B9F2B0C01FA01609393
:10F950005B0030935700E89511244E5F5F4F6F4F67
:10F960007F4F0EEFE02E0FEFF02ECE0CDF1CC114F8
:10F97000D10499F685E0C05EDE4F088119812A81A5
:10F980003B81C052D140F80120935B008093570027
:10F99000E89507B600FCFDCF81E180935700E8951C
:10F9A00035C0C05EDE4F88819981AA81BB81C0527B
:10F9B000D140B695A795979587957C018601ABE0D8
:10F9C000AA2EB12CAC0EBD1E0BC0D5016D915D01F0
:10F9D000C7010F947FFE0894E11CF11C01501040F8
:10F9E0000115110591F7A60160E070E0440F551F65
:10F9F000661F771FC05EDE4FE880F9800A811B8199
:10FA0000C052D1404E0D5F1D601F711F1A82C05E33
:10FA1000DE4F488359836A837B83C052D1407FC0C5
:10FA2000FA80C55CDE4FF882CB53D140C65CDE4F16
:10FA30001882CA53D1408B81C82EDD24C65CDE4FAC
:10FA400008811981CA53D140C02AD12A1A828981DA
:10FA5000BE016D5F7F4F843121F59601C05EDE4FA0
:10FA6000E880F9800A811B81C052D1400BBFF701A9
:10FA700087919691DB018C9311969C936E5F7F4FDB
:10FA8000D801C7010296A11DB11DC05EDE4F88835B
:10FA90009983AA83BB83C052D14022503040F1F6F3
:10FAA00036C0C05EDE4F288139814A815B81C052F9
:10FAB000D1400894C108D108760100E010E0089414
:10FAC000C11CD11C0894E11CF11C011D111DE20E8A
:10FAD000F31E041F151F21BDBB27A52F942F832FB5
:10FAE00082BD2F5F3F4F4F4F5F4FF89A80B5DB01CC
:10FAF0008D93BD012E153F054007510761F7C05E8C
:10FB0000DE4F288339834A835B83C052D1409601FC
:10FB10002D5F3F4FFB01108204C080EC8A8322E0FE
:10FB200030E08BE18093C6008091C00086FFFCCF5F
:10FB30008091C00080648093C000C15DDE4FF88179
:10FB4000CF52D140F093C6008091C00086FFFCCF19
:10FB50008091C00080648093C000432F3093C60022
:10FB60008091C00086FFFCCF8091C00080648093AC
:10FB7000C000922F2093C6008091C00086FFFCCF6A
:10FB80008091C00080648093C0008EE08093C600A6
:10FB90008091C00086FFFCCF8091C000806480937C
:10FBA000C00065E1C15DDE4FE880CF52D1406E25D7
:10FBB00069276427FE01319610C090819093C6009A
:10FBC0008091C00086FFFCCF31968091C000806498
:10FBD0008093C0006927215030402115310569F715
:10FBE0006093C6008091C00086FFFCCF8091C0006A
:10FBF00080648093C00085B1805885B9772081F4F6
:10FC0000C15DDE4F0881CF52D1400F5FC15DDE4F35
:10FC10000883CF52D14090E0A0E0B0E00D941AF4F8
:10FC200027982F9880E090E020ED37E0F901319798
:10FC3000F1F7019684369105C9F700008091C00064
:10FC40008D7F8093C00081E180935700E895EE2777
:10FC5000FF270994FFCF90E00D941AF497FB092E2B
:10FC600007260AD077FD04D02ED006D000201AF443
:10FC7000709561957F4F0895F6F7909581959F4F08
:10FC80000895A1E21A2EAA1BBB1BFD010DC0AA1FDD
:10FC9000BB1FEE1FFF1FA217B307E407F50720F0F5
:10FCA000A21BB30BE40BF50B661F771F881F991F70
:10FCB0001A9469F760957095809590959B01AC01B9
:10FCC000BD01CF010895AA1BBB1B51E107C0AA1FAC
:10FCD000BB1FA617B70710F0A61BB70B881F991FED
:10FCE0005A95A9F780959095BC01CD010895F99991
:10FCF000FECF92BD81BDF89A992780B50895262F31
:10FD0000F999FECF1FBA92BD81BD20BD0FB6F89400
:0EFD1000FA9AF99A0FBE01960895F894FFCF63
:040000033000E000E9
:00000001FF
